{
  "_format": "hh-sol-artifact-1",
  "contractName": "CryptoBank",
  "sourceName": "contracts/CryptoBank.sol",
  "abi": [
    {
      "inputs": [],
      "stateMutability": "nonpayable",
      "type": "constructor"
    },
    {
      "anonymous": false,
      "inputs": [
        {
          "indexed": true,
          "internalType": "address",
          "name": "accountAddress",
          "type": "address"
        },
        {
          "indexed": false,
          "internalType": "uint256",
          "name": "amount",
          "type": "uint256"
        }
      ],
      "name": "DepositMade",
      "type": "event"
    },
    {
      "inputs": [],
      "name": "balance",
      "outputs": [
        {
          "internalType": "uint256",
          "name": "",
          "type": "uint256"
        }
      ],
      "stateMutability": "view",
      "type": "function"
    },
    {
      "inputs": [],
      "name": "deposit",
      "outputs": [
        {
          "internalType": "uint256",
          "name": "",
          "type": "uint256"
        }
      ],
      "stateMutability": "payable",
      "type": "function"
    },
    {
      "inputs": [],
      "name": "owner",
      "outputs": [
        {
          "internalType": "address",
          "name": "",
          "type": "address"
        }
      ],
      "stateMutability": "view",
      "type": "function"
    },
    {
      "inputs": [],
      "name": "totalBalance",
      "outputs": [
        {
          "internalType": "uint256",
          "name": "",
          "type": "uint256"
        }
      ],
      "stateMutability": "view",
      "type": "function"
    },
    {
      "inputs": [
        {
          "internalType": "uint256",
          "name": "withdrawAmount",
          "type": "uint256"
        }
      ],
      "name": "withdraw",
      "outputs": [
        {
          "internalType": "uint256",
          "name": "currentBalance",
          "type": "uint256"
        }
      ],
      "stateMutability": "nonpayable",
      "type": "function"
    }
  ],
  "bytecode": "0x608060405234801561001057600080fd5b5033600160006101000a81548173ffffffffffffffffffffffffffffffffffffffff021916908373ffffffffffffffffffffffffffffffffffffffff1602179055506105e9806100616000396000f3fe60806040526004361061004a5760003560e01c80632e1a7d4d1461004f5780638da5cb5b1461008c578063ad7a672f146100b7578063b69ef8a8146100e2578063d0e30db01461010d575b600080fd5b34801561005b57600080fd5b5061007660048036038101906100719190610447565b61012b565b6040516100839190610483565b60405180910390f35b34801561009857600080fd5b506100a1610255565b6040516100ae91906104df565b60405180910390f35b3480156100c357600080fd5b506100cc61027b565b6040516100d99190610483565b60405180910390f35b3480156100ee57600080fd5b506100f76102dd565b6040516101049190610483565b60405180910390f35b610115610323565b6040516101229190610483565b60405180910390f35b60008060003373ffffffffffffffffffffffffffffffffffffffff1673ffffffffffffffffffffffffffffffffffffffff16815260200190815260200160002054821161020f57816000803373ffffffffffffffffffffffffffffffffffffffff1673ffffffffffffffffffffffffffffffffffffffff16815260200190815260200160002060008282546101c09190610529565b925050819055503373ffffffffffffffffffffffffffffffffffffffff166108fc839081150290604051600060405180830381858888f1935050505015801561020d573d6000803e3d6000fd5b505b6000803373ffffffffffffffffffffffffffffffffffffffff1673ffffffffffffffffffffffffffffffffffffffff168152602001908152602001600020549050919050565b600160009054906101000a900473ffffffffffffffffffffffffffffffffffffffff1681565b6000600160009054906101000a900473ffffffffffffffffffffffffffffffffffffffff1673ffffffffffffffffffffffffffffffffffffffff163373ffffffffffffffffffffffffffffffffffffffff16146102d757600080fd5b47905090565b60008060003373ffffffffffffffffffffffffffffffffffffffff1673ffffffffffffffffffffffffffffffffffffffff16815260200190815260200160002054905090565b6000346000803373ffffffffffffffffffffffffffffffffffffffff1673ffffffffffffffffffffffffffffffffffffffff1681526020019081526020016000206000828254610373919061055d565b925050819055503373ffffffffffffffffffffffffffffffffffffffff167fd15c9547ea5c06670c0010ce19bc32d54682a4b3801ece7f3ab0c3f17106b4bb346040516103c09190610483565b60405180910390a26000803373ffffffffffffffffffffffffffffffffffffffff1673ffffffffffffffffffffffffffffffffffffffff16815260200190815260200160002054905090565b600080fd5b6000819050919050565b61042481610411565b811461042f57600080fd5b50565b6000813590506104418161041b565b92915050565b60006020828403121561045d5761045c61040c565b5b600061046b84828501610432565b91505092915050565b61047d81610411565b82525050565b60006020820190506104986000830184610474565b92915050565b600073ffffffffffffffffffffffffffffffffffffffff82169050919050565b60006104c98261049e565b9050919050565b6104d9816104be565b82525050565b60006020820190506104f460008301846104d0565b92915050565b7f4e487b7100000000000000000000000000000000000000000000000000000000600052601160045260246000fd5b600061053482610411565b915061053f83610411565b925082821015610552576105516104fa565b5b828203905092915050565b600061056882610411565b915061057383610411565b9250827fffffffffffffffffffffffffffffffffffffffffffffffffffffffffffffffff038211156105a8576105a76104fa565b5b82820190509291505056fea264697066735822122057ec3a605eedd2792811f56e9b8ca53c285ffd25c4ccc656b6e966dc6a1ea5ad64736f6c63430008090033",
  "linkReferences": {},
  "deployedLinkReferences": {}
}