{
  "_format": "hh-sol-artifact-1",
  "contractName": "CryptoBank",
  "sourceName": "contracts/CryptoBank.sol",
  "abi": [
    {
      "inputs": [],
      "stateMutability": "nonpayable",
      "type": "constructor"
    },
    {
      "inputs": [],
      "name": "balance",
      "outputs": [
        {
          "internalType": "uint256",
          "name": "",
          "type": "uint256"
        }
      ],
      "stateMutability": "view",
      "type": "function"
    },
    {
      "inputs": [],
      "name": "deposit",
      "outputs": [
        {
          "internalType": "uint256",
          "name": "",
          "type": "uint256"
        }
      ],
      "stateMutability": "payable",
      "type": "function"
    },
    {
      "inputs": [],
      "name": "owner",
      "outputs": [
        {
          "internalType": "address",
          "name": "",
          "type": "address"
        }
      ],
      "stateMutability": "view",
      "type": "function"
    },
    {
      "inputs": [],
      "name": "totalBalance",
      "outputs": [
        {
          "internalType": "uint256",
          "name": "",
          "type": "uint256"
        }
      ],
      "stateMutability": "view",
      "type": "function"
    },
    {
      "inputs": [
        {
          "internalType": "uint256",
          "name": "amount",
          "type": "uint256"
        }
      ],
      "name": "withdraw",
      "outputs": [
        {
          "internalType": "uint256",
          "name": "",
          "type": "uint256"
        }
      ],
      "stateMutability": "nonpayable",
      "type": "function"
    }
  ],
  "bytecode": "0x60806040526000600160146101000a81548160ff02191690831515021790555034801561002b57600080fd5b5033600160006101000a81548173ffffffffffffffffffffffffffffffffffffffff021916908373ffffffffffffffffffffffffffffffffffffffff1602179055506107318061007c6000396000f3fe60806040526004361061004a5760003560e01c80632e1a7d4d1461004f5780638da5cb5b1461008c578063ad7a672f146100b7578063b69ef8a8146100e2578063d0e30db01461010d575b600080fd5b34801561005b57600080fd5b5061007660048036038101906100719190610494565b61012b565b60405161008391906104d0565b60405180910390f35b34801561009857600080fd5b506100a16102f0565b6040516100ae919061052c565b60405180910390f35b3480156100c357600080fd5b506100cc610316565b6040516100d991906104d0565b60405180910390f35b3480156100ee57600080fd5b506100f7610378565b60405161010491906104d0565b60405180910390f35b6101156103be565b60405161012291906104d0565b60405180910390f35b6000600160149054906101000a900460ff161561017d576040517f08c379a0000000000000000000000000000000000000000000000000000000008152600401610174906105a4565b60405180910390fd5b60018060146101000a81548160ff0219169083151502179055506000803373ffffffffffffffffffffffffffffffffffffffff1673ffffffffffffffffffffffffffffffffffffffff168152602001908152602001600020548211156101e257600080fd5b60003373ffffffffffffffffffffffffffffffffffffffff1683604051610208906105f5565b60006040518083038185875af1925050503d8060008114610245576040519150601f19603f3d011682016040523d82523d6000602084013e61024a565b606091505b505090508061028e576040517f08c379a000000000000000000000000000000000000000000000000000000000815260040161028590610656565b60405180910390fd5b6000600160146101000a81548160ff0219169083151502179055506000803373ffffffffffffffffffffffffffffffffffffffff1673ffffffffffffffffffffffffffffffffffffffff16815260200190815260200160002054915050919050565b600160009054906101000a900473ffffffffffffffffffffffffffffffffffffffff1681565b6000600160009054906101000a900473ffffffffffffffffffffffffffffffffffffffff1673ffffffffffffffffffffffffffffffffffffffff163373ffffffffffffffffffffffffffffffffffffffff161461037257600080fd5b47905090565b60008060003373ffffffffffffffffffffffffffffffffffffffff1673ffffffffffffffffffffffffffffffffffffffff16815260200190815260200160002054905090565b6000346000803373ffffffffffffffffffffffffffffffffffffffff1673ffffffffffffffffffffffffffffffffffffffff168152602001908152602001600020600082825461040e91906106a5565b925050819055506000803373ffffffffffffffffffffffffffffffffffffffff1673ffffffffffffffffffffffffffffffffffffffff16815260200190815260200160002054905090565b600080fd5b6000819050919050565b6104718161045e565b811461047c57600080fd5b50565b60008135905061048e81610468565b92915050565b6000602082840312156104aa576104a9610459565b5b60006104b88482850161047f565b91505092915050565b6104ca8161045e565b82525050565b60006020820190506104e560008301846104c1565b92915050565b600073ffffffffffffffffffffffffffffffffffffffff82169050919050565b6000610516826104eb565b9050919050565b6105268161050b565b82525050565b6000602082019050610541600083018461051d565b92915050565b600082825260208201905092915050565b7f5265656e7472616e742063616c6c206465746563746564210000000000000000600082015250565b600061058e601883610547565b915061059982610558565b602082019050919050565b600060208201905081810360008301526105bd81610581565b9050919050565b600081905092915050565b50565b60006105df6000836105c4565b91506105ea826105cf565b600082019050919050565b6000610600826105d2565b9150819050919050565b7f5472616e73666572206661696c65642e00000000000000000000000000000000600082015250565b6000610640601083610547565b915061064b8261060a565b602082019050919050565b6000602082019050818103600083015261066f81610633565b9050919050565b7f4e487b7100000000000000000000000000000000000000000000000000000000600052601160045260246000fd5b60006106b08261045e565b91506106bb8361045e565b9250827fffffffffffffffffffffffffffffffffffffffffffffffffffffffffffffffff038211156106f0576106ef610676565b5b82820190509291505056fea2646970667358221220a8fb5ea8b083a98fdfbd7151efe3419c20354edba8682886a6a8d7b4ff250b5f64736f6c63430008090033",
  "linkReferences": {},
  "deployedLinkReferences": {}
}